:020000040800F2
:100000008004002045010008090B0008670900086A
:10001000050B0008DB040008FB13000800000000CB
:10002000000000000000000000000000050D0008B6
:100030008106000800000000B50B0008D50E00087E
:100040005F0100085F0100085F0100085F01000810
:100050005F0100085F010008150700085F01000844
:100060005F0100085F0100085F0100085F010008F0
:100070005F0100085F0100085F0100085F010008E0
:100080005F0100085F0100085F0100085F010008D0
:100090005F0100085F0100085F0100085F010008C0
:1000A0005F0100085F0100085F0100085F010008B0
:1000B0005F0100085F0100085F0100085F010008A0
:1000C0005F0100085F0100085F0100085F01000890
:1000D0005F0100083D1100085F0100085F01000892
:1000E000590700085F0100085F0100085F01000870
:1000F0005F0100085F0100085F0100085F01000860
:100100005F0100085F0100085F0100085F0100084F
:100110005F0100085F010008610F00085F0100082F
:100120005F0100085F0100085F0100085F0100082F
:10013000DFF80CD000F02EF800480047B915000891
:10014000800400200648804706480047FEE7FEE797
:10015000FEE7FEE7FEE7FEE7FEE7FEE7FEE7FEE777
:10016000010F00083101000830B50B4601460020A0
:100170002022012409E021FA02F59D4205D303FA69
:1001800002F5491B04FA02F52844151EA2F10102EA
:10019000F1DC30BD064C074D06E0E06840F001039D
:1001A00094E8070098471034AC42F6D3FFF7C4FF39
:1001B000741B0008941B000821B1826842F0010200
:1001C000826003E0826822F001028260704721B100
:1001D000826842F48072826003E0826822F4807256
:1001E00082607047014600208A6802F004020AB16A
:1001F000012000E000207047014600208A6802F0DC
:1002000008020AB1012000E00020704730B5024624
:100210000020002350680F4C20400D790C6844EA00
:1002200005242043506090680B4C2040D1E90254D3
:100230002C434D7944EA450420439060D06A20F471
:1002400070000C7C641EE4B2234340EA0350D06289
:1002500030BD0000FFFEF0FFFDF7F1FFF0B50446F2
:100260000D4600200021092D11DDE068A5F10A06E8
:1002700006EB4607072606FA07F18843A5F10A06AA
:1002800006EB460603FA06F10843E0600CE020693D
:1002900005EB4507072606FA07F1884305EB4506F7
:1002A00003FA06F108432061072A0FDA606B561E35
:1002B00006EB86071F2606FA07F18843561E06EB53
:1002C000860605FA06F10843606322E00D2A0FDA7C
:1002D000206BD61F06EB86071F2606FA07F1884318
:1002E000D61F06EB860605FA06F10843206310E0E8
:1002F000E06AA2F10D0606EB86071F2606FA07F153
:100300008843A2F10D0606EB860605FA06F10843BE
:10031000E062F0BD816841F008018160704721B161
:10032000826842F4A002826003E0826822F4A002A4
:1003300082607047816841F004018160704700006D
:1003400008B50121102000F063FC0220ADF8000088
:1003500000208DF803006946014800F075FA08BDD9
:100360000010014010B5FFF7EBFF00F001F810BDE1
:1003700000B591B00121084600F02AFC0121480295
:1003800000F046FC334800F0B7F833480690334895
:100390000790002008900120099000200A900B90FF
:1003A0004FF480700C9080000D9020200E90000281
:1003B0000F900020109006A9264800F043F9012173
:1003C000244800F08CF8002001908DF808000120EE
:1003D0008DF809004FF46020039000200490012064
:1003E0008DF8140001A91C484C38FFF70FFF4FF49B
:1003F000404000F0E1FB052301220B2116484C3858
:10040000FFF72CFF012114484C38FFF7E0FE0121D3
:1004100011484C38FFF7D0FE0F484C38FFF77AFFF1
:1004200000BF0D484C38FFF7E7FE0028F9D10A4815
:100430004C38FFF77FFF00BF07484C38FFF7D2FE6C
:100440000028F9D1012104484C38FFF768FF11B0AA
:1004500000BD0000080002404C240140380000208C
:1004600010B500F025F800F001F810BD0EB501211F
:10047000102000F0BDFB40F2E730ADF8040041F67B
:10048000CF30ADF800006946084800F0F9FD0121C1
:10049000064800F073FD01221146044800F091FD6A
:1004A0000121024800F070FD0EBD00000010004068
:1004B00008B54FF4E06000F073FB36208DF80000C3
:1004C00000208DF8010003208DF8020001208DF836
:1004D0000300684600F02CFB08BD00BFFEE721B119
:1004E000026842F00102026004E002684FF6FE7307
:1004F0001A4002607047000001684FF6FE7211401A
:1005000001600021016041608160C1604B49884207
:1005100008D14A490839496841F00F01474A083A69
:1005200051608AE045491431884208D1434908396D
:10053000496841F0F001414A083A51607DE03F4985
:100540002831884208D13D490839496841F4706131
:100550003A4A083A516070E038493C31884208D143
:1005600036490839496841F47041344A083A5160C3
:1005700063E032495031884208D13049083949682E
:1005800041F470212D4A083A516056E02B496431FC
:10059000884208D129490839496841F47001274A3D
:1005A000083A516049E025497831884208D1234909
:1005B0000839496841F07061204A083A51603CE0CE
:1005C0001F49884206D1011F096841F00F01021F2F
:1005D000116032E01A491431884208D11849091FC4
:1005E000096841F0F001164A121F116025E0144914
:1005F0002831884208D11249091F096841F4706105
:100600000F4A121F116018E00D493C31884208D191
:100610000B49091F096841F47041094A121F116012
:100620000BE007495031884207D10549091F096885
:1006300041F47021024A121F116070470800024005
:100640000804024010B50022026847F6F0739A438E
:100650000C6A8B6823430C6923434C6923438C69E0
:100660002343CC6923434C6A23438C6A23431A43B4
:100670000260CB6843600B6883604B68C36010BD49
:100680007047000000B585B00121042000F0C0FAD9
:100690000121880300F0BCFA4FF40070ADF810009F
:1006A00018208DF8130003208DF8120004A91748B4
:1006B00000F0CAF84FF48060ADF8100004208DF807
:1006C000130004A9114800F0BFF84FF4E130009086
:1006D0000020ADF80400ADF80600ADF80800ADF854
:1006E0000C000C20ADF80A006946094800F010FE25
:1006F00000F00BFA012240F22551054800F0E3FD1D
:100700000121034800F09CFD05B000BD0008014038
:100710000038014010B5012000F046F8A0B10B48A8
:10072000006818B100200949086008E0084800681E
:10073000082804DA06480068401C054908600120C2
:100740000449086000F02AF810BD000030000020C5
:10075000280000202C00002010B54FF4005000F0BD
:1007600023F8A0B10A48006858B900200849086079
:1007700008480068002804DD06480068401E054956
:100780000860012004490860400300F007F810BD2C
:1007900030000020280000202C00002001490860C3
:1007A0007047000014040140014600200022074B5E
:1007B0001B6803EA0102054B14331B680B4013B19D
:1007C0000AB1012000E00020704700000004014051
:1007D00008B50121042000F01BFA4020ADF800000C
:1007E00018208DF8030003208DF8020069460248A6
:1007F00000F02AF808BD00000008014010B5FFF71E
:10080000E7FF00F001F810BD10B50121022000F053
:10081000EFF94720094908800020C8804880087205
:100820004FF4FA74602006490880012048800020B7
:1008300008810121034800F0A7FB10BD64000020DF
:100840006E000020000400402DE9F0410246002522
:100850000026002000230024002791F803C00CF09C
:100860000F0591F803C00CF0100CBCF1000F03D081
:1008700091F802C04CEA050591F800C0BCF1000FE8
:1008800031D0146800202BE04FF0010C0CFA00F37B
:10089000B1F800C00CEA03069E4220D183004FF05D
:1008A0000F0C0CFA03F7BC4305FA03FC4CEA0404F2
:1008B00091F803C0BCF1280F06D14FF0010C0CFADF
:1008C00000FCC2F814C00AE091F803C0BCF1480F64
:1008D00005D14FF0010C0CFA00FCC2F810C0401C0E
:1008E0000828D1D31460B1F800C0BCF1FF0F34DD8B
:1008F000546800202EE000F1080C4FF0010808FABF
:100900000CF3B1F800C00CEA03069E4221D183002B
:100910004FF00F0C0CFA03F7BC4305FA03FC4CEA4A
:10092000040491F803C0BCF1280F05D100F1080CB4
:1009300008FA0CF8C2F8148091F803C0BCF1480F13
:1009400007D100F1080C4FF0010808FA0CF8C2F8C2
:100950001080401C0828CED35460BDE8F08141616E
:1009600070470161704700BFFEE7000070B50546A3
:100970000E461446084800EBC500815DF82000F0E3
:100980007DF804E02178FA2000F078F8641C2078E3
:100990000028F7D170BD00004000002008B50121FB
:1009A000042000F035F90420ADF8000010208DF887
:1009B000030003208DF8020069461748FFF744FF43
:1009C0000820ADF8000069461348FFF73DFF3220CC
:1009D00000F038FA3021F82000F050F8962000F0AE
:1009E00055FA3021F82000F049F8282000F04EFA9E
:1009F0000C21F82000F042F8962000F047FA01217F
:100A0000F82000F03BF80F2000F01CFA0621F82037
:100A100000F034F808BD0000000801400146002045
:100A200026E0154A126842F00802134B1A60802231
:100A300002410A4032B11A1F126842F004021B1F21
:100A40001A6005E00C4A126842F004020A4B1A6070
:100A5000094A121F126842F00802074B1B1F1A6056
:100A60001A1D126842F008021B1D1A60421CD0B207
:100A70000828D6DB704700001408014070B5054611
:100A80000C46012000F0DEF92846FFF7C7FF04F00E
:100A9000F000FFF7C3FFF02101EA0410FFF7BEFFEB
:100AA00070BD000008B50121082000F0B1F8202039
:100AB000ADF8000010208DF8030003208DF802002F
:100AC00069460F48FFF7C0FE0120ADF800006946F7
:100AD0000B48FFF7B9FE0220ADF800006946084850
:100AE000FFF7B2FE20210648FFF73BFF0121044833
:100AF000FFF737FF02210248FFF733FF08BD000070
:100B0000000C014000BFFEE7704708B54FF4A0603D
:100B100000F046F825208DF8000001208DF8010036
:100B20008DF802008DF80300684600F001F808BD5A
:100B300070B5002100230F22C47804B3154C24683B
:100B400004F4E064C4F5E064210AC1F10403CA407E
:100B5000447804FA03F184781440214309010E4CCF
:100B60000678A155047804F01F050124AC400578EF
:100B70006D11AD0005F1E025C5F8004109E00478EC
:100B800004F01F050124AC40044D0678761145F8A9
:100B9000264070BD0CED00E000E400E080E100E0E4
:100BA00002490143024A1160704700000000FA0543
:100BB0000CED00E07047000001460020034A506839
:100BC00020F440400843506070470000001002408D
:100BD00029B1064A52690243044B5A6104E0034AB0
:100BE00052698243014B5A61704700000010024075
:100BF00029B1064AD2690243044BDA6104E0034A90
:100C0000D2698243014BDA61704700000010024054
:100C100029B1064A92690243044B9A6104E0034AEF
:100C200092698243014B9A617047000000100240B4
:100C300030B500210022002400232D4D6D6805F001
:100C40000C0121B1042905D0082923D105E0294D43
:100C5000056022E0274D05601FE0254D6D6805F415
:100C60007012234D6D6805F48034022505EB924225
:100C70001CB9214D554305600BE01D4D6D6805F411
:100C800000351DB11C4D5543056002E0194D55431B
:100C9000056002E0174D056000BF00BF144D6D6890
:100CA00005F0F0010909154D6B5C0568DD404560F4
:100CB0000F4D6D6805F4E061090A104D6B5C4568E5
:100CC000DD4085600A4D6D6805F46051C90A0B4D21
:100CD0006B5C4568DD40C560054D6D6805F44041BD
:100CE000890B074D6B5CC568B5FBF3F5056130BD3D
:100CF0000010024000127A0000093D00140000209C
:100D000024000020704710B500F002F810BD00006C
:100D10000CB50020019000903348006840F480300A
:100D20003149086000BF3048006800F4003000908E
:100D30000198401C0190009818B90198B0F5A06F77
:100D4000F1D12948006800F4003010B10120009072
:100D500001E0002000900098012843D1234800685A
:100D600040F01000214908600846006820F00300A8
:100D700008600846006840F0020008601A484068B1
:100D8000194948600846406848600846406840F491
:100D9000806048600846406820F47C10486008463F
:100DA000406840F4E81048600846006840F08070F1
:100DB000086000BF0C48006800F000700028F9D0FF
:100DC0000948406820F00300074948600846406829
:100DD00040F00200486000BF0348406800F00C008B
:100DE0000828F9D10CBD000000100240002002408C
:100DF00030B50146B1F1807F01D3012030BD21F033
:100E00007F40401E4FF0E022506150170F22002813
:100E100007DA13071D0E094B00F00F04241F1D55A0
:100E200003E013071C0E064B1C5400BF00204FF0BC
:100E3000E0229061072010610020DFE718ED00E05C
:100E400000E400E031B5104800684FF47A71B0FB5F
:100E5000F1F52846FFF7CCFF002408E000BF4FF073
:100E6000E020006900F480300028F8D0641C00986D
:100E70008442F3D34FF0E020006920F001004FF0EE
:100E8000E021086138BD00000000002031B50F48A6
:100E900000680F49B0FBF1F52846FFF7A9FF0024D1
:100EA00008E000BF4FF0E020006900F48030002827
:100EB000F8D0641C00988442F3D34FF0E02000691E
:100EC00020F001004FF0E021086138BD0000002053
:100ED00040420F0010B500F025F910BD10B50648CE
:100EE00000680649B0FBF1F42046FFF781FF08B126
:100EF00000BFFEE710BD000000000020A08601003A
:100F000010B51348006840F0010011490860084618
:100F10004068104908400E494860084600680E497C
:100F200008400B4908600846006820F480200860EB
:100F30000846406820F4FE0048604FF41F008860B7
:100F4000FFF7E1FE4FF000600449086010BD0000AB
:100F5000001002400000FFF8FFFFF6FE08ED00E081
:100F600010B50121044800F01BF818B10121024816
:100F700000F007F810BD000000100040CA430282D4
:100F80007047CA430282704721B1028842F00102D1
:100F9000028004E002884FF6FE731A400280704718
:100FA00030B50246002000230024158A05EA01031B
:100FB000958905EA010413B10CB1012000E000207D
:100FC00030BD1AB183890B43838102E083898B434F
:100FD0008381704770B5002400220023058C4FF6F2
:100FE000FE7635400584028C8388048B4FF68F751E
:100FF0002C40B51E2C400D882C43751E2A400D89AF
:101000002A434D882A43144DA8420BD0134DA842C1
:1010100008D0134DA84205D0124DA84202D0124D5F
:10102000A84213D14FF6F7752A404D892A434FF64F
:10103000FB752A408D882A434FF6FF652B404FF6FB
:10104000FF552B408D892B43CD892B43838004830F
:10105000CD888586028470BD002C0140003401409B
:101060000040014000440140004801400A46002180
:10107000018B4FF6F773194011430183704700004D
:10108000002202881D4B98420ED01D4B98420BD077
:10109000B0F1804F08D01B4B984205D01A4B9842B4
:1010A00002D01A4B984204D14FF68F731A404B88E6
:1010B0001A43174B984207D0164B984204D04FF66C
:1010C000FF431A40CB881A4302808B8883850B88A4
:1010D00003850A4B98420BD0094B984208D00E4B1F
:1010E000984205D00D4B984202D00D4B984201D149
:1010F0000B7A03860123838270470000002C014095
:10110000003401400004004000080040000C004092
:101110000010004000140040004001400044014025
:10112000004801400448006820B103480068401EA0
:1011300001490860704700003C00002010B540F2F3
:1011400025513B4800F095F8002870D0384800F051
:101150004BF93849088008460088412806D100200C
:101160003549086001203549086060E03148008851
:10117000422805D10120304908603049086056E016
:101180002C480088432806D102202B490860012002
:101190002A4908604BE027480088442806D10320EC
:1011A0002549086001202549086040E02148008861
:1011B000452806D104202049086001201F49086005
:1011C00035E01C480088462806D105201A490860E9
:1011D00001201A4908602AE016480088472806D1ED
:1011E0000620154908600120144908601FE01148D5
:1011F0000088482806D107200F49086001200F49C0
:10120000086014E00B480088492806D108200A49E4
:10121000086001200949086009E00648008858284C
:1012200005D109200449086001200449086010BD67
:101230000038014036000020280000202C0000204B
:1012400021B1828942F40052828104E082894DF604
:10125000FF731A408281704702460020B1F5007F7B
:1012600000D100BF13880B400BB1012000E000202B
:10127000704770B50246002400230025002040F688
:101280006A16B14200D100BFC1F3421501F01F033D
:10129000012606FA03F3012D02D19689334006E0B8
:1012A000022D02D1168A334001E0968A33400C1297
:1012B000012606FA04F41688344013B10CB101205B
:1012C00000E0002070BDF0B5034600240026002594
:1012D000002040F66A17B94200D100BF1846C1F39A
:1012E000421401F01F06012707FA06F5012C01D16F
:1012F0000C3004E0022C01D1103000E014301AB19F
:1013000007682F43076002E00768AF430760F0BD3E
:101310002DE9F04786B005460E460024A24600BFE0
:10132000A1460027B08900B100BF2F462C8A4CF699
:10133000FF700440F08804432C82AC894EF6F31011
:101340000440B08831890843718908430443AC8163
:10135000AC8A4FF6FF400440B0890443AC8201A838
:10136000FFF766FC1F48874202D1DDF810A001E0BC
:10137000DDF80CA0A88900F4004040B10AEBCA00D7
:1013800000EB0A1031684900B0FBF1F807E00AEB06
:10139000CA0000EB0A1031688900B0FBF1F8642044
:1013A000B8FBF0F004012009642101FB1089A88931
:1013B00000F4004040B1322000EBC900B0FBF1F076
:1013C00000F00700044308E0322000EB091064211C
:1013D000B0FBF1F000F00F0004432C8106B0BDE833
:1013E000F08700000038014001468888C0F30800FB
:1013F0007047C1F308028280704700BFFEE700001B
:101400000FB4054B10B503A9044A029800F018F870
:1014100010BC5DF814FB000095150008600000206A
:1014200002E008C8121F08C1002AFAD170477047AD
:10143000002001E001C1121F002AFBD1704700000B
:101440002DE9FF4F89B09B460446002506E025287C
:101450000BD05A460B999047641C6D1C20780028CD
:10146000F5D10DB02846BDE8F08F0027B84601221F
:10147000474900E0074314F8013F203B02FA03F01C
:101480000842F7D120782E2819D114F8010F47F01F
:1014900004072A280ED06FF02F022078A0F1300127
:1014A00009290CD808EB880102EB410100EB010887
:1014B000641CF2E70A98641C50F8048B0A902078A8
:1014C0000028CED0642808D0692806D075281ED000
:1014D0005A460B9990476D1C58E00A994FF00A093B
:1014E00001C90A91002802DA40422D2102E03905A3
:1014F00004D52B218DF82010012103E0F90704D039
:101500002021F7E78A4608AE0DE00021FAE70A99A4
:101510004FF00A0901C90A91F7E74946FEF724FE90
:10152000303106F8011D0028F7D1ADEB060000F1BF
:101530002009780701D44FF00108C84502DDA8EB67
:10154000090000E000208046002706E008A85A466F
:10155000C05D0B9990476D1C7F1C5745F6DB04E07E
:1015600030205A460B9990476D1CB8F10001A8F144
:101570000108F5DC05E016F8010B5A460B99904777
:101580006D1CB9F10001A9F10109F4DC641C65E7E7
:101590000928010070B504460D46E1B20548FFF781
:1015A00028FF00BF80210348FFF756FE0028F9D02E
:1015B000204670BD00380140FEF7D4FEFEF750FF14
:1015C000FFF71CF9FFF75EF8FFF76CFAFFF786FCF0
:1015D000FFF7E4F993E1CA480068002874D00020BE
:1015E000C7490860C74800680A286ED2DFE800F0E3
:1015F00005284A6E8FB1D3F5FDFC3C234FF47A7277
:10160000C0480168C0A0FFF7FBFE0120CB4948801D
:1016100040F2E730CA4988804FF4FA70C749C88061
:10162000C8A200210846FFF7A1F9C9A200210120A4
:10163000FFF79CF9CAA200210220FFF797F92DE1DC
:1016400078234FF4FA62AF480168AFA0FFF7D8FEE5
:101650000120BA49488040F2F310B9498880FA2045
:10166000B649C880C2A200210846FFF77FF9C3A28D
:1016700000210120FFF77AF9C4A200210220FFF720
:1016800075F90BE1B42340F6B8329E4801689EA07C
:10169000FFF7B6FE0120A949488040F24D10A84945
:1016A0008880A020A549C880BDA200210846FFF778
:1016B0005DF9BEA200210120FFF758F9BFA2002169
:1016C0000220FFF753F9E9E0F5E0E3E0F0234FF4FF
:1016D0007A628C480168BEA0FFF792FE012097490C
:1016E0004880F920964988807D209449C880C5A209
:1016F00000210846FFF73AF9C5A200210120FFF7B3
:1017000035F9C7A200210220FFF730F9C6E04FF4F7
:10171000967341F288327B4801687BA0FFF770FE28
:10172000012086494880C7208549888064208349F4
:10173000C880C0A200210846FFF718F9C0A2002106
:101740000120FFF713F9C2A200210220FFF70EF9D2
:10175000A4E04FF4B47341F270726A4801686AA061
:10176000FFF74EFE012075494880A7207449888004
:1017700053207249C880BBA200210846FFF7F6F843
:10178000BBA200210120FFF7F1F8BDA20021022039
:10179000FFF7ECF882E04FF4D27341F65832594823
:1017A000016859A0FFF72CFE0120644948808F2072
:1017B0006349888047206149C880B6A20021084655
:1017C000FFF7D4F8B6A200210120FFF7CFF8B8A2A6
:1017D00000210220FFF7CAF800BF4FF4F0734FF466
:1017E000FA524848016801E03EE01BE046A0FFF7DE
:1017F00007FE0120514948807D20514988803E20C4
:101800004E49C880AFA200210846FFF7AFF8B0A24A
:1018100000210120FFF7AAF8B1A200210220FFF762
:10182000A5F800BF4FF4077342F22832354801682B
:1018300035A0FFF7E5FD0120404948806F20404971
:10184000888032203D49C880AAA200210846FFF7BF
:101850008DF8ABA200210120FFF788F8ACA200218F
:101860000220FFF783F800BFAEA0FFF7C9FD0020FC
:1018700032494880AEA200210846FFF777F8AFA2B0
:1018800000210120FFF772F8AFA200210220FFF72C
:101890006DF800BFB0A0FFF7B3FD00BF00BF28493F
:1018A000B248FFF7EDFB2549B048FFF793FB08214D
:1018B000AE48FFF7DBFB2021AD48FFF750F84FF4AF
:1018C0007A70FFF7BFFA2021A948FFF74AF80121F3
:1018D000A748FFF744F84FF47A70FFF7B3FA0121F5
:1018E000A348FFF73EF80221A148FFF738F84FF46C
:1018F0007A70FFF7A7FA02219D48FFF732F86AE6EF
:101900002C00002028000020666C6167CAC72025D3
:1019100064202CCFD6D4DAB5C4C2F6B3E5CAC72545
:101920006420485A2CD7AACBD9CAC7202564207274
:101930002F6D696E200D0A20000000006E0000204F
:1019400064000020466C616720697320300000004D
:1019500050574D206973203130303020485A0000F4
:10196000537065656420697320363020722F6E00D5
:10197000466C6167206973203100000050574D208C
:101980006973203230303020485A0000537065654A
:10199000642069732031323020722F6E0000000005
:1019A000466C6167206973203200000050574D205B
:1019B0006973203330303020485A00005370656519
:1019C000642069732031383020722F6E00000000CF
:1019D000666C6167CAC7202564202CCFD6D4DAB5DF
:1019E000C4C2F6B3E5CAC7256420485A202CD7AA3A
:1019F000CBD9CAC720256420722F6D696E200D0ACD
:101A000020000000466C61672069732033000000ED
:101A100050574D206973203430303020485A000030
:101A200053706565642069732032343020722F6EE4
:101A300000000000466C61672069732034000000DC
:101A400050574D206973203530303020485A0000FF
:101A500053706565642069732033303020722F6EB7
:101A600000000000466C61672069732035000000AB
:101A700050574D206973203630303020485A0000CE
:101A800053706565642069732033363020722F6E81
:101A900000000000466C616720697320360000007A
:101AA00050574D206973203730303020485A00009D
:101AB00053706565642069732034323020722F6E54
:101AC00000000000466C6167206973203700000049
:101AD00050574D206973203830303020485A00006C
:101AE00053706565642069732034383020722F6E1E
:101AF00000000000466C6167206973203800000018
:101B000050574D206973203930303020485A00003A
:101B100053706565642069732035343020722F6EF0
:101B200000000000CDA3D6B9D7AAB6AF0A000000C6
:101B3000466C6167206973203900000053746F7030
:101B400070696E67000000005370656564206973FA
:101B5000203020722F6E0000D5E2CAC7C4ACC8CFB7
:101B6000B5C4C7E9BFF6200D0A000000000400401C
:101B7000000C0140941B00080000002064000000DD
:101B800020140008F81B0008640000201C0400005A
:101B90003014000800A24A04000000000000000009
:101BA0000102030406070809000000000102030403
:101BB00001020304060708090204060800000000E9
:101BC0000000000001000000000000000000000014
:101BD00000000000808182838485868790919293A3
:101BE0009495969788898A8B8C8D8E8F98999A9BDD
:081BF0009C9D9E9F0000000077
:0400000508000131BD
:00000001FF
