:020000040800F2
:10000000A0040020450100088D110008EB0F000836
:1000100089110008630B00087F1A00080000000027
:10002000000000000000000000000000891300082C
:10003000090D0008000000003912000859150008D9
:100040005F0100085F0100085F0100085F01000810
:100050005F0100085F0100089D0D00085F010008B6
:100060005F0100085F0100085F0100085F010008F0
:100070005F0100085F0100085F0100085F010008E0
:100080005F0100085F0100085F0100085F010008D0
:100090005F0100085F0100085F0100085F010008C0
:1000A0005F0100085F0100085F0100085F010008B0
:1000B0005F0100085F0100085F0100085F010008A0
:1000C0005F0100085F0100085F0100085F01000890
:1000D0005F010008C11700085F0100085F01000808
:1000E000E10D00085F0100085F0100085F010008E2
:1000F0005F0100085F0100085F0100085F01000860
:100100005F0100085F0100085F0100085F0100084F
:100110005F0100085F010008E51500085F010008A5
:100120005F0100085F0100085F0100085F0100082F
:10013000DFF80CD000F01EFB004800477D230008CC
:10014000A00400200648804706480047FEE7FEE777
:10015000FEE7FEE7FEE7FEE7FEE7FEE7FEE7FEE777
:10016000851500083101000830B480EA010202F070
:10017000004530F0004221F0004013D090B1C30D93
:10018000D40DC2F31601C0F31600E41A41F40001C5
:1001900040F400027D34914201D3641C00E0490028
:1001A000002C02DA30BC002070474FF4000000231E
:1001B000914201D3891A034340084FEA4101F7D124
:1001C00051B1914202D14FF0004105E002D24FF00F
:1001D000010101E06FF0010103EBC450284430BC81
:1001E00000F0EDB82DE9FE4F81EA030404F000446D
:1001F00021F0004100944FF0000B23F0004350EA3F
:1002000001045ED052EA03045BD0C3F30A54C1F385
:100210000A552C44A4F2F3340194A0FB0254C1F318
:10022000130141F48011C3F3130343F4801301FB62
:10023000024400FB034E840A970A44EA815447EAC9
:100240008357A4FB076802958D0A05FB07854FEAD3
:10025000932C04FB0C542705029D4FEA065847EAED
:100260001637B5EB08056EEB070C870E920E47EAC2
:10027000811742EA8312A7FB0201B6EB0B0164EB84
:1002800000042B0D43EA0C335E1844EB1C50DA4695
:100290005146E7FB0201C5F313044FEA0B3343EA6F
:1002A00014534FEA0432019C43EA0603A4F10C0400
:1002B0000294009CCDE900B400F0C7F803B0BDE89B
:1002C000F08F00200146F9E796230022114600F046
:1002D0007FB800F0004230F000400AD0C10D01F5B7
:1002E0006071C0F3160042EA0151C2084007114391
:1002F000704700200146704701F0004330B421F000
:10030000004150EA010206D00A0DA2F56072C1F365
:100310001301002A02DC30BC00207047440F44EA7D
:10032000C104C100E01830BC00EBC25000F047B877
:1003300030B50B46014600202022012409E021FAB5
:1003400002F59D4205D303FA02F5491B04FA02F5B2
:100350002844151EA2F10102F1DC30BD2DE9F05F49
:100360000546002092469B46884606468146402424
:100370001BE0284641464746224600F01CFA5346F9
:100380005A46C01A914110D311461846224600F031
:1003900003FA2D1A67EB01084F462246012000217F
:1003A00000F0FAF917EB00094E41201EA4F10104F8
:1003B000DFDC484631462A464346BDE8F09F002927
:1003C000A8BF7047401C490008BF20F001007047DB
:1003D00010B4B0FA80FC00FA0CF050EA010404BF3B
:1003E00010BC704749B1CCF1200421FA04F411FA91
:1003F0000CF118BF012121430843A3EB0C01CB1DD5
:100400004FEA00614FEA102042BF002010BC704745
:1004100000EBC35010440029A4BF10BC7047401C1F
:10042000490008BF20F0010010BC704710B5141E31
:1004300073F1000408DA401C41F1000192185B419D
:100440001A4301D120F0010010BD2DE9F04D924674
:100450009B4611B1B1FA81F202E0B0FA80F220328B
:10046000904600F099F904460F4640EA0A0041EA36
:100470000B0153465A46084313D0114653EA010074
:1004800019D0C8F14002504600F095F905460E46D5
:1004900050465946424600F07FF9084305D00120F6
:1004A00004E020463946BDE8F08D0020054346EAC9
:1004B000E0762C4337430A986305E40AA0EB080072
:1004C0000022FD0A44EA47540A3002D500200146C2
:1004D000E9E7010510196941DDE90845001969419D
:1004E000BDE8F04DA2E72DE9FE4F804681EA03000A
:1004F000C00F0C46009021F0004123F00045B8EBFE
:100500000200A94105D24046214690461C460B46B2
:10051000024623F00040104347D0270DC7F30A00DE
:10052000C3F30A510290401A019040286BDAC3F3DA
:10053000130040F4801B0098924620B10023D2EBB8
:10054000030A63EB0B0B01985946C0F14002504679
:1005500000F022F906460D4650465946019A00F031
:100560003AF910EB08006141002487EA115284EA4D
:10057000E7731A4340D0009A62B3019A012A4FEA06
:10058000075215DC001B61EB02014FF0004202EA4A
:100590000752CDE90042001C41F5801132462B463E
:1005A000FFF753FF03B0BDE8F08F40462146F9E75F
:1005B000001B61EB0201001C41F5801300185B4138
:1005C0002018A2F5001747EB030140EAD570B619D1
:1005D0006D4111E06D084FEA360645EAC0754FEAF5
:1005E0000752001B61EB0201001C41F58011490814
:1005F0004FEA30000019514132462B4603B0BDE8A6
:10060000F04FFFF713BF0098012240000023D0EB0A
:10061000020263EBE073009821464FEAE074B8EB06
:10062000000061EB0401E9E783F000435BE781F040
:10063000004158E72DE9F04D81EA030404F0004B36
:1006400021F0004514464FF0000A23F0004150EA23
:10065000050220D054EA01021DD0C5F30A57024614
:10066000C5F31303C1F31300C1F30A5640F4801518
:1006700043F48013A7EB0608101BD64608F2FD389A
:1006800073EB050002D308F1010801E092185B4109
:10069000B8F1000F03DA00200146BDE8F08D00201C
:1006A0004FF48011064684460EE0171B73EB0507D6
:1006B00005D3121B63EB050306434CEA010C490802
:1006C0004FEA300092185B4150EA0107EDD152EA3F
:1006D000030012D082EA040083EA0501084305D032
:1006E000101BAB4106D20122002306E000224FF08E
:1006F000004302E06FF0010253101AEB06004CEBCE
:10070000085110EB0A0041EB0B01BDE8F04DFFF77B
:100710008DBEC1F30A52C1F3130140F2FF3341F41D
:1007200080119A4202DA00200146704740F23343BA
:100730009A42A2F2334202DC524200F03CB800F08E
:100740002BB8000030B5041E71F1000404DB4FF03B
:100750000044404264EB0101141E73F1000405DB08
:100760001C464FF00043524263EB0403994208BF1A
:10077000904230BD064C074D06E0E06840F00103B2
:1007800094E8070098471034AC42F6D3FFF7D4FC46
:10079000FC2A00081C2B0008202A04DB203A00FA5F
:1007A00002F1002070479140C2F1200320FA03F3C8
:1007B000194390407047202A04DB203A21FA02F0C6
:1007C0000021704721FA02F3D040C2F1200291408B
:1007D000084319467047202A06DBCB17203A41FA16
:1007E00002F043EAE07306E041FA02F3D040C2F1BE
:1007F0002002914008431946704721B1826842F0B7
:100800000102826003E0826822F001028260704788
:1008100021B1826842F48072826003E0826822F42F
:10082000807282607047014600208A6802F00402EC
:100830000AB1012000E000207047014600208A68CC
:1008400002F008020AB1012000E000207047000019
:1008500030B502460020002350680F4C20400D792F
:100860000C6844EA05242043506090680B4C2040FB
:10087000D1E902542C434D7944EA45042043906069
:10088000D06A20F470000C7C641EE4B2234340EA7A
:100890000350D06230BD0000FFFEF0FFFDF7F1FF16
:1008A000F0B504460D4600200021092D11DDE06859
:1008B000A5F10A0606EB4607072606FA07F1884364
:1008C000A5F10A0606EB460603FA06F10843E060C6
:1008D0000CE0206905EB4507072606FA07F1884377
:1008E00005EB450603FA06F108432061072A0FDAF3
:1008F000606B561E06EB86071F2606FA07F1884333
:10090000561E06EB860605FA06F10843606322E0F0
:100910000D2A0FDA206BD61F06EB86071F2606FA74
:1009200007F18843D61F06EB860605FA06F1084351
:10093000206310E0E06AA2F10D0606EB86071F2691
:1009400006FA07F18843A2F10D0606EB860605FAC2
:1009500006F10843E062F0BD816841F00801816062
:10096000704721B1826842F4A002826003E082688D
:1009700022F4A00282607047816841F00401816026
:100980007047000008B50121102000F083FC3F20D3
:10099000ADF8000000208DF803006946014800F022
:1009A00097FA08BD0010014010B5FFF7EBFF00F00B
:1009B00001F810BD00B591B00121084600F04AFCD5
:1009C0000121480200F066FC444800F0D9F8444890
:1009D00006904448079000200890062009900020C7
:1009E0000A9080200B9040000C9080000D902020F9
:1009F0000E9000020F900020109006A9374800F0DA
:100A000065F90121354800F0AEF800200190012081
:100A10008DF808008DF809004FF460200390002045
:100A2000049006208DF8140001A92D484C38FFF7DA
:100A30000FFF4FF4404000F001FC052301220A2182
:100A400027484C38FFF72CFF052302220B212448AE
:100A50004C38FFF725FF052303220C2120484C3892
:100A6000FFF71EFF052304220D211D484C38FFF718
:100A700017FF05231A460E2119484C38FFF710FFBF
:100A8000052306220F2116484C38FFF709FF0121E4
:100A900013484C38FFF7BCFE012111484C38FFF7D2
:100AA000ACFE0F484C38FFF757FF00BF0C484C38DE
:100AB000FFF7C3FE0028F9D109484C38FFF75CFF67
:100AC00000BF07484C38FFF7AEFE0028F9D10121DE
:100AD00003484C38FFF745FF11B000BD0800024045
:100AE0004C2401409400002010B500F025F800F0DF
:100AF00001F810BD0EB50121102000F0BBFB40F243
:100B0000E730ADF8040041F6CF30ADF8000069469B
:100B1000084800F0F7FD0121064800F071FD0122B0
:100B20001146044800F08FFD0121024800F06EFDDF
:100B30000EBD00000010004008B54FF4E06000F06A
:100B400071FB36208DF8000000208DF80100032095
:100B50008DF8020001208DF80300684600F02AFBA2
:100B600008BD00BFFEE721B1026842F00102026049
:100B700004E002684FF6FE731A40026070470000FE
:100B800001684FF6FE721140016000210160416072
:100B90008160C1604B49884208D14A490839496897
:100BA00041F00F01474A083A51608AE04549143143
:100BB000884208D143490839496841F0F001414A67
:100BC000083A51607DE03F492831884208D13D49CB
:100BD0000839496841F470613A4A083A516070E056
:100BE00038493C31884208D136490839496841F4CE
:100BF0007041344A083A516063E0324950318842CA
:100C000008D130490839496841F470212D4A083A21
:100C1000516056E02B496431884208D1294908398E
:100C2000496841F47001274A083A516049E0254972
:100C30007831884208D123490839496841F0706108
:100C4000204A083A51603CE01F49884206D1011F02
:100C5000096841F00F01021F116032E01A49143196
:100C6000884208D11849091F096841F0F001164A65
:100C7000121F116025E014492831884208D1124919
:100C8000091F096841F470610F4A121F116018E0D2
:100C90000D493C31884208D10B49091F096841F4CC
:100CA0007041094A121F11600BE007495031884218
:100CB00007D10549091F096841F47021024A121F32
:100CC00011607047080002400804024010B500227D
:100CD000026847F6F0739A430C6A8B6823430C69E9
:100CE00023434C6923438C692343CC6923434C6AD7
:100CF00023438C6A23431A430260CB6843600B682A
:100D000083604B68C36010BD7047000000B585B0BC
:100D10000121042000F0BEFA0121880300F0BAFA94
:100D20004FF40070ADF8100018208DF81300032068
:100D30008DF8120004A9174800F0CAF84FF480603B
:100D4000ADF8100004208DF8130004A9114800F03C
:100D5000BFF84FF4E13000900020ADF80400ADF88A
:100D60000600ADF80800ADF80C000C20ADF80A0044
:100D70006946094800F00EFE00F009FA012240F22F
:100D80002551054800F0E1FD0121034800F09AFDDE
:100D900005B000BD000801400038014010B5012039
:100DA00000F046F8A0B10B48006818B100200949CE
:100DB000086008E008480068082804DA0648006867
:100DC000401C0549086001200449086000F02AF829
:100DD00010BD000030000020280000202C00002062
:100DE00010B54FF4005000F023F8A0B10A48006895
:100DF00058B900200849086008480068002804DD48
:100E000006480068401E0549086001200449086042
:100E1000400300F007F810BD30000020280000203B
:100E20002C000020014908607047000014040140B4
:100E3000014600200022074B1B6803EA0102054B14
:100E400014331B680B4013B10AB1012000E00020ED
:100E5000704700000004014008B50121042000F0A3
:100E600019FA4020ADF8000018208DF80300032087
:100E70008DF802006946024800F02AF808BD00001B
:100E80000008014010B5FFF7E7FF00F001F810BDC2
:100E900010B50121022000F0EDF947200949088032
:100EA0000020C880488008724FF4FA746020064918
:100EB000088001204880002008810121034800F0BB
:100EC000A5FB10BD600000206A0000200004004067
:100ED0002DE9F041024600250026002000230024D1
:100EE000002791F803C00CF00F0591F803C00CF037
:100EF000100CBCF1000F03D091F802C04CEA0505BC
:100F000091F800C0BCF1000F31D0146800202BE034
:100F10004FF0010C0CFA00F3B1F800C00CEA030624
:100F20009E4220D183004FF00F0C0CFA03F7BC4314
:100F300005FA03FC4CEA040491F803C0BCF1280F45
:100F400006D14FF0010C0CFA00FCC2F814C00AE004
:100F500091F803C0BCF1480F05D14FF0010C0CFA19
:100F600000FCC2F810C0401C0828D1D31460B1F8AE
:100F700000C0BCF1FF0F34DD546800202EE000F10A
:100F8000080C4FF0010808FA0CF3B1F800C00CEAA5
:100F900003069E4221D183004FF00F0C0CFA03F799
:100FA000BC4305FA03FC4CEA040491F803C0BCF10D
:100FB000280F05D100F1080C08FA0CF8C2F81480CB
:100FC00091F803C0BCF1480F07D100F1080C4FF0B5
:100FD000010808FA0CF8C2F81080401C0828CED38B
:100FE0005460BDE8F0810161704700BFFEE700007A
:100FF00070B505460E461446084800EBC500815DF5
:10100000F82000F07DF804E02178FA2000F078F86C
:10101000641C20780028F7D170BD00003C0000203F
:1010200008B50121042000F035F90420ADF80000D6
:1010300010208DF8030003208DF802006946174840
:10104000FFF746FF0820ADF8000069461348FFF798
:101050003FFF322000F038FA3021F82000F050F83D
:10106000962000F055FA3021F82000F049F82820A9
:1010700000F04EFA0C21F82000F042F8962000F023
:1010800047FA0121F82000F03BF80F2000F01CFA8D
:101090000621F82000F034F808BD000000080140E7
:1010A0000146002026E0154A126842F00802134B60
:1010B0001A60802202410A4032B11A1F126842F0BF
:1010C00004021B1F1A6005E00C4A126842F0040279
:1010D0000A4B1A60094A121F126842F00802074BB5
:1010E0001B1F1A601A1D126842F008021B1D1A60AD
:1010F000421CD0B20828D6DB70470000140801401B
:1011000070B505460C46012000F0DEF92846FFF7D1
:10111000C7FF04F0F000FFF7C3FFF02101EA04105D
:10112000FFF7BEFF70BD000008B50121082000F0E8
:10113000B1F82020ADF8000010208DF80300032046
:101140008DF8020069460F48FFF7C2FE0120ADF896
:10115000000069460B48FFF7BBFE0220ADF8000017
:1011600069460848FFF7B4FE20210648FFF73BFF19
:1011700001210448FFF737FF02210248FFF733FF40
:1011800008BD0000000C014000BFFEE7704708B535
:101190004FF4A06000F046F825208DF800000120F3
:1011A0008DF801008DF802008DF80300684600F00C
:1011B00001F808BD70B5002100230F22C47804B3E4
:1011C000154C246804F4E064C4F5E064210AC1F11C
:1011D0000403CA40447804FA03F18478144021439C
:1011E00009010E4C0678A155047804F01F0501246E
:1011F000AC4005786D11AD0005F1E025C5F8004162
:1012000009E0047804F01F050124AC40044D067881
:10121000761145F8264070BD0CED00E000E400E0DA
:1012200080E100E002490143024A1160704700007A
:101230000000FA050CED00E07047000001460020B8
:10124000034A506820F44040084350607047000053
:101250000010024029B1064A52690243044B5A6108
:1012600004E0034A52698243014B5A61704700000F
:101270000010024029B1064AD2690243044BDA61E8
:1012800004E0034AD2698243014BDA6170470000EF
:101290000010024029B1064A92690243044B9A6148
:1012A00004E0034A92698243014B9A61704700004F
:1012B0000010024030B500210022002400232D4DF3
:1012C0006D6805F00C0121B1042905D0082923D14E
:1012D00005E0294D056022E0274D05601FE0254D02
:1012E0006D6805F47012234D6D6805F48034022595
:1012F00005EB92421CB9214D554305600BE01D4D95
:101300006D6805F400351DB11C4D5543056002E0C4
:10131000194D5543056002E0174D056000BF00BF41
:10132000144D6D6805F0F0010909154D6B5C0568F9
:10133000DD4045600F4D6D6805F4E061090A104D10
:101340006B5C4568DD4085600A4D6D6805F4605151
:10135000C90A0B4D6B5C4568DD40C560054D6D6885
:1013600005F44041890B074D6B5CC568B5FBF3F58F
:10137000056130BD0010024000127A0000093D00F6
:101380001400002024000020704710B500F002F87F
:1013900010BD00000CB5002001900090334800689B
:1013A00040F480303149086000BF3048006800F4E4
:1013B000003000900198401C0190009818B90198E5
:1013C000B0F5A06FF1D12948006800F4003010B1E9
:1013D0000120009001E0002000900098012843D1F6
:1013E0002348006840F01000214908600846006862
:1013F00020F0030008600846006840F00200086022
:101400001A484068194948600846406848600846DC
:10141000406840F4806048600846406820F47C10D2
:1014200048600846406840F4E81048600846006894
:1014300040F08070086000BF0C48006800F0007049
:101440000028F9D00948406820F0030007494860A7
:101450000846406840F00200486000BF034840680A
:1014600000F00C000828F9D10CBD0000001002406B
:101470000020024030B50146B1F1807F01D3012048
:1014800030BD21F07F40401E4FF0E02250615017E8
:101490000F22002807DA13071D0E094B00F00F0476
:1014A000241F1D5503E013071C0E064B1C5400BFE0
:1014B00000204FF0E0229061072010610020DFE75C
:1014C00018ED00E000E400E031B5104800684FF48A
:1014D0007A71B0FBF1F52846FFF7CCFF002408E055
:1014E00000BF4FF0E020006900F480300028F8D001
:1014F000641C00988442F3D34FF0E020006920F090
:1015000001004FF0E021086138BD0000000000201C
:1015100031B50F4800680F49B0FBF1F52846FFF7D9
:10152000A9FF002408E000BF4FF0E020006900F4AC
:1015300080300028F8D0641C00988442F3D34FF028
:10154000E020006920F001004FF0E021086138BD83
:101550000000002040420F0010B500F025F910BD3A
:1015600010B5064800680649B0FBF1F42046FFF7C5
:1015700081FF08B100BFFEE710BD000000000020A1
:10158000A086010010B51348006840F00100114921
:10159000086008464068104908400E4948600846FF
:1015A00000680E4908400B4908600846006820F4AE
:1015B000802008600846406820F4FE0048604FF430
:1015C0001F008860FFF7E1FE4FF0006004490860EB
:1015D00010BD0000001002400000FFF8FFFFF6FE03
:1015E00008ED00E010B50121044800F01BF818B127
:1015F0000121024800F007F810BD00000010004073
:10160000CA4302827047CA430282704721B10288EE
:1016100042F00102028004E002884FF6FE731A4095
:101620000280704730B50246002000230024158A4E
:1016300005EA0103958905EA010413B10CB1012003
:1016400000E0002030BD1AB183890B43838102E0A2
:1016500083898B438381704770B500240022002367
:10166000058C4FF6FE7635400584028C8388048B0A
:101670004FF68F752C40B51E2C400D882C43751EDF
:101680002A400D892A434D882A43144DA8420BD085
:10169000134DA84208D0134DA84205D0124DA842C0
:1016A00002D0124DA84213D14FF6F7752A404D894A
:1016B0002A434FF6FB752A408D882A434FF6FF6573
:1016C0002B404FF6FF552B408D892B43CD892B4363
:1016D00083800483CD888586028470BD002C014000
:1016E00000340140004001400044014000480140F6
:1016F0000A460021018B4FF6F7731940114301830D
:1017000070470000002202881D4B98420ED01D4BEE
:1017100098420BD0B0F1804F08D01B4B984205D0B7
:101720001A4B984202D01A4B984204D14FF68F734D
:101730001A404B881A43174B984207D0164B9842D1
:1017400004D04FF6FF431A40CB881A4302808B889F
:1017500083850B8803850A4B98420BD0094B98422E
:1017600008D00E4B984205D00D4B984202D00D4B3D
:10177000984201D10B7A03860123838270470000CF
:10178000002C0140003401400004004000080040EB
:10179000000C0040001000400014004000400140D8
:1017A00000440140004801400448006820B103485B
:1017B0000068401E014908607047000038000020A2
:1017C00010B540F225513B4800F095F8002870D044
:1017D000384800F04BF9384908800846008841280D
:1017E00006D100203549086001203549086060E0D5
:1017F00031480088422805D101203049086030492D
:10180000086056E02C480088432806D102202B4966
:10181000086001202A4908604BE0274800884428D6
:1018200006D103202549086001202549086040E0D1
:1018300021480088452806D104202049086001205D
:101840001F49086035E01C480088462806D105205D
:101850001A49086001201A4908602AE016480088E1
:10186000472806D106201549086001201449086060
:101870001FE011480088482806D107200F4908605A
:1018800001200F49086014E00B480088492806D160
:1018900008200A49086001200949086009E0064853
:1018A0000088582805D1092004490860012004490E
:1018B000086010BD003801403600002028000020DC
:1018C0002C00002021B1828942F40052828104E080
:1018D00082894DF6FF731A408281704702460020CC
:1018E000B1F5007F00D100BF13880B400BB1012080
:1018F00000E00020704770B5024600240023002558
:10190000002040F66A16B14200D100BFC1F3421573
:1019100001F01F03012606FA03F3012D02D1968977
:10192000334006E0022D02D1168A334001E0968A48
:1019300033400C12012606FA04F41688344013B121
:101940000CB1012000E0002070BDF0B5034600247A
:1019500000260025002040F66A17B94200D100BFDA
:101960001846C1F3421401F01F06012707FA06F5D5
:10197000012C01D10C3004E0022C01D1103000E028
:1019800014301AB107682F43076002E00768AF43BD
:101990000760F0BD2DE9F04786B005460E460024ED
:1019A000A24600BFA1460027B08900B100BF2F4664
:1019B0002C8A4CF6FF700440F08804432C82AC89DA
:1019C0004EF6F3100440B08831890843718908430A
:1019D0000443AC81AC8A4FF6FF400440B089044315
:1019E000AC8201A8FFF766FC1F48874202D1DDF8F0
:1019F00010A001E0DDF80CA0A88900F4004040B17F
:101A00000AEBCA0000EB0A1031684900B0FBF1F89C
:101A100007E00AEBCA0000EB0A1031688900B0FB4E
:101A2000F1F86420B8FBF0F004012009642101FB07
:101A30001089A88900F4004040B1322000EBC900B1
:101A4000B0FBF1F000F00700044308E0322000EBA7
:101A500009106421B0FBF1F000F00F0004432C8169
:101A600006B0BDE8F08700000038014001468888D4
:101A7000C0F308007047C1F308028280704700BFBE
:101A8000FEE700000FB4054B10B503A9044A029805
:101A900000F0CAF810BC5DF814FB000059230008E0
:101AA0005C00002002E008C8121F08C1002AFAD119
:101AB00070477047002001E001C1121F002AFBD1CE
:101AC000704700002DE9FF5FDDE90220010DDDF820
:101AD00038B0024318D044F61050A1F2FF31414310
:101AE0000D140F98012820D0A5EB0B00401C5FEAD5
:101AF000000A4FF00004474EDFF81C91A046504604
:101B000016D5CAF1000728E00F98012443A2012846
:101B100008D0002100980F9BC0E90021C0E90243D2
:101B2000BDE8FF9F6FEA0B01F4E7CBF10000DEE7B1
:101B3000074612E0F80707D022463346404649469A
:101B4000FEF750FB8046894622463346104619462A
:101B5000FEF748FB04460E467F10002FEAD1DDE970
:101B60000201BAF1000F42464B4602DAFEF73AFB99
:101B700001E0FEF75FFD04460E460022284BFEF70B
:101B8000E1FD03D84FF0FF30014607E00022254B6E
:101B900020463146FEF7A7FCFEF7BBFD102409E006
:101BA000002C0ADB0A220023FEF7D8FB019B30320F
:101BB0001A55641E50EA0102F2D1641C019AC4F164
:101BC000110314440F9A012A03D0012208430DD1B6
:101BD0000AE0084304D000204FF0110B0F9080E77B
:101BE000A3EB0B056D1E0DE05B4504DD4FF000021D
:101BF00005F1010504E003DA4FF00002A5F101054B
:101C0000002AECD000980F99C0E90231C0E90045E4
:101C100086E70000000024400000F03F3000000094
:101C20000000F0430000E03F2DE9FF4F95B09B46D8
:101C30008946064600250FE2252877D1002427464D
:101C4000F84A0121059400E0044316F8013F203BC7
:101C500001FA03F01042F7D130782A2811D06FF042
:101C60002F033078A0F13002092A16D8059A44F0E3
:101C7000020402EB820203EB42021044761C059040
:101C8000EFE759F8042B0592002A03DA504244F496
:101C90000054059044F00204761C30782E2816D1AA
:101CA00016F8010F44F004042A280DD06FF02F021B
:101CB0003078A0F13003092B09D807EB870302EB3A
:101CC0004303C718761CF3E759F8047B761C307879
:101CD0006C280FD006DC4C2817D068280DD06A2855
:101CE00014D104E0742810D07A280FD10DE044F408
:101CF00000140AE044F4801401E044F440147278C3
:101D0000824202D104F58014761C761C3078662855
:101D10000BD013DC582877D009DC002875D0452873
:101D2000F6D04628F4D047281AD19DE118E0632860
:101D300035D0642879D0652812D195E1702873D008
:101D400008DC6728F1D069286FD06E280DD06F2885
:101D500006D1B5E073282CD0752875D0782874D0BA
:101D60005A46179990476D1C75E1C4F3025002283A
:101D700009D003280DD0D9F8001004280DD00D602B
:101D800009F1040967E1D9F80010EA17C1E9005226
:101D9000F6E7D9F800100D80F2E70D70F0E719F8BA
:101DA000041B8DF8001000208DF80100EA46012088
:101DB00003E059F804AB4FF0FF3061074FF000012A
:101DC00002D40DE008F101018846B9420FDA8045DE
:101DD000F8DB1AF808100029F4D108E008F1010135
:101DE00088468142FADB1AF808100029F6D10598D6
:101DF0005B46A0EB080721463846179A00F094FA94
:101E0000284400EB080507E04DE029E10DE01AF851
:101E1000010B5A4617999047B8F10108F7D25B4673
:101E200021463846179A13E142E00A220092C4F391
:101E300002524FF0000A022A08D059F804CB032AB4
:101E40004FEAEC710AD00DE029E02AE009F1070120
:101E500021F00702F2E802C1914609E00FFA8CFC7A
:101E60004FEAEC71042A03D14FFA8CFC4FEAEC7173
:101E7000002907DA0A460021DCF1000C61EB0201BF
:101E80002D2202E0220504D52B228DF80420012208
:101E900003E0E20701D02022F7E7904659E00A214B
:101EA00002E010220DE010214FF0000A00910BE03B
:101EB00010224FF0000A44F004040827009203E0C7
:101EC00008224FF0000A0092C4F30252022A05D001
:101ED00059F804CB0021032A08D009E009F10701D1
:101EE00021F00702F2E802C1914605E01FFA8CFCDE
:101EF000042A01D10CF0FF0C4FF00008220728D56E
:101F0000702806D0009B83F0100353EA0A0305D023
:101F10000EE040228DF80420012208E05CEA010274
:101F200006D030228DF804208DF80500022290465C
:101F3000009B83F0080353EA0A030AD15CEA01021A
:101F400001D1620705D530228DF804204FF0010839
:101F50007F1E582804D034A003900EA802900DE0F4
:101F600036A0F9E753466046009AFEF7F7F9844633
:101F70000398825C0298401E029002705CEA0100A5
:101F8000F0D1029806A9081A00F1200A600702D5CC
:101F900024F4803400E00127574502DDA7EB0A0056
:101FA00000E0002000EB0A01009005984144401A2F
:101FB0000590E00306D45B462146179A059800F089
:101FC000B3F90544002706E001A85A46C05D1799F9
:101FD00090476D1C7F1C4745F6DBE0030CD55B4644
:101FE0002146179A059800F09FF9054404E0302037
:101FF0005A46179990476D1C0099481E0090002979
:10200000F5DC08E0029802995A460078491C0291D2
:10201000179990476D1CBAF10001AAF1010AF1DC91
:1020200065E100000928010030313233343536379C
:102030003839616263646566000000003031323314
:1020400034353637383941424344454600000000B4
:1020500000F058F90544761C307800287FF4ECAD88
:1020600019B02846BDE8F08F620700D4062709F1B1
:10207000070222F0070CFCE80223E14603F00048C7
:102080005FEA080C02D00FF2702C0DE05FEA045CEE
:1020900002D50FF2682C07E05FEAC47C02D00FF291
:1020A000602C01E0AFF2700C4FF0FF3823F00043DA
:1020B000CDF850C065280CD006DC452809D046284C
:1020C0001DD047283DD13DE0662818D067287ED135
:1020D00038E00021112F01DB112000E0781CCDE950
:1020E000000106A90EA8FFF7EDFCDDE90F010E9A2D
:1020F00003910021009207F1010A04914DE04FF095
:1021000000400097CDE9011006A90EA8FFF7DAFC00
:10211000DDE90F0203920E9B11990022DDF80CA05D
:102120000093049211B9791C00EB010AB7EB0A0085
:1021300004D4C0F1FF3007F1010A0490AAEB0700B4
:10214000019044E0012F00DA01270021112F01DD69
:10215000112000E03846CDE9000106A90EA8FFF7DE
:10216000B1FCDDE90F010E9A039100210491009268
:10217000BA4621070CD40399514500DA8A46BAF1D0
:10218000010F05DD009AAAF10101515C302908D048
:10219000B84202DA10F1040F06DA0121CDE901108C
:1021A00015E0AAF10101E9E7002805DC04990144E2
:1021B0000491AAEB000102E0411C514500DD8A4672
:1021C0000499401A401C01904FF0004002902007F3
:1021D00004D40198504501DBCDF8048000208DF82F
:1021E0004F0002980DF14F07B0F1004F25D02B2082
:1021F0000E9002984FF0020800280CDA404202903C
:102200002D200E9007E00A210298FEF791F8303158
:10221000029007F8011DB8F10001A8F10108F2DCF5
:1022200002980028EFD1791E0E980870307800F0DF
:10223000200040F0450007F8020D12A8C01B00F175
:1022400007081498007800B1012000EB0A010198FA
:1022500001EBE07105984144401A401E0590E003EF
:1022600006D45B462146179A059800F05DF80544B0
:102270001498007818B15A46179990476D1CE003DE
:1022800024D55B462146179A059800F04DF8054481
:102290001CE00498002807DBDDE90301884203DD28
:1022A0000098405C179901E0179930205A469047F2
:1022B000049805F10105401C04900198401E01900E
:1022C00004D12E205A46179990476D1CBAF100018F
:1022D000AAF1010ADDDC05E017F8010B5A4617994F
:1022E00090476D1CB8F10001A8F10108F4DC5B46D1
:1022F0002146179A0598ABE62D0000002B00000040
:10230000200000002DE9F041044600251E46174636
:10231000880404D405E039462020B0476D1C641EB3
:10232000F9D52846BDE8F0812DE9F04104460025A5
:102330001E469046C80301D5302700E020278804B8
:1023400004D505E041463846B0476D1C641EF9D5FA
:102350002846BDE8F081000070B504460D46E1B2A4
:102360000548FFF788FB00BF80210348FFF7B6FA56
:102370000028F9D0204670BD00380140FEF714FB5C
:10238000FEF7B2FBFEF77EFDFEF7C0FCFEF7CCFECB
:10239000FFF7E6F8FEF744FE61E3FE480068002818
:1023A00074D00020FB490860FB4800680A286ED200
:1023B000DFE800F005284A6E8FB1D3F8F6F53C232C
:1023C0004FF47A72F4480168F4A0FFF75BFB012038
:1023D000FE49488040F2E730FD4988804FF4FA70AA
:1023E000FA49C880FBA200210846FEF701FEFCA2C4
:1023F00000210120FEF7FCFDFDA200210220FEF7D6
:10240000F7FD2DE178234FF4FA62E3480168E3A079
:10241000FFF738FB0120ED49488040F2F310EC490A
:102420008880FA20E949C880F5A200210846FEF715
:10243000DFFDF6A200210120FEF7DAFDF7A2002160
:102440000220FEF7D5FD0BE1B42340F6B832D248A6
:102450000168D2A0FFF716FB0120DC49488040F25A
:102460004D10DB498880A020D849C880F0A2002107
:102470000846FEF7BDFDF1A200210120FEF7B8FDE0
:10248000F2A200210220FEF7B3FDE9E0F5E0E3E06F
:10249000F0234FF47A62C0480168C0A0FFF7F2FA57
:1024A0000120CA494880F920C94988807D20C74950
:1024B000C880EBA200210846FEF79AFDEBA200219E
:1024C0000120FEF795FDEDA200210220FEF790FD10
:1024D000C6E04FF4967341F28832AF480168AFA06E
:1024E000FFF7D0FA0120B9494880C720B849888051
:1024F0006420B649C880E6A200210846FEF778FDB0
:10250000E6A200210120FEF773FDE8A200210220CF
:10251000FEF76EFDA4E04FF4B47341F270729E4872
:1025200001689EA0FFF7AEFA0120A8494880A720C5
:10253000A74988805320A549C880E1A20021084608
:10254000FEF756FDE1A200210120FEF751FDE3A2B6
:1025500000210220FEF74CFD82E04FF4D27341F6D9
:1025600058328D4801688DA0FFF78CFA01209749F9
:1025700048808F209649888047209449C880DCA2F3
:1025800000210846FEF734FDDCA200210120FEF701
:102590002FFDDEA200210220FEF72AFD60E045E0CB
:1025A00022E0FFE74FF4F0734FF4FA527A480168E3
:1025B0007AA0FFF767FA0120844948807D2084498A
:1025C00088803E208149C880D5A200210846FEF7B8
:1025D0000FFDD6A200210120FEF70AFDD7A200219F
:1025E0000220FEF705FD3BE04FF4077342F228326C
:1025F0006948016869A0FFF745FA012073494880DE
:102600006F207349888032207049C880D0A2002191
:102610000846FEF7EDFCD1A200210120FEF7E8FC00
:10262000D2A200210220FEF7E3FC19E0D4A0FFF7BC
:1026300029FA002065494880D4A200210846FEF707
:10264000D7FCD5A200210120FEF7D2FCD5A20021A3
:102650000220FEF7CDFC03E0D6A0FFF713FA00BF7F
:1026600000BF5B49D948FFF74DF85849D748FEF7F6
:10267000F3FF0821D548FFF73BF8D5490888FDF757
:1026800023FE81464FF08B41FDF76EFD0446FDF7BA
:1026900020FE07464FF06632CE4BFDF7A3FD054600
:1026A000FDF72AFECC490860C9494888FDF70CFEB1
:1026B00081464FF08B41FDF757FD0446FDF709FEBB
:1026C00007464FF06632C34BFDF78CFD0546FDF71C
:1026D00013FEC1494860BE498888FDF7F5FD814673
:1026E0004FF08B41FDF740FD0446FDF7F2FD074634
:1026F0004FF06632B74BFDF775FD0546FDF7FCFD63
:10270000B5498860B249C888FDF7DEFD81464FF0C3
:102710008B41FDF729FD0446FDF7DBFD07464FF031
:102720006632AC4BFDF75EFD0546FDF7E5FDAA49B7
:10273000C860A7490889FDF7C7FD81464FF08B4166
:10274000FDF712FD0446FDF7C4FD07464FF0663263
:10275000A04BFDF747FD0546FDF7CEFD9E490861FC
:102760009B494889FDF7B0FD81464FF08B41FDF74D
:10277000FBFC0446FDF7ADFD07464FF06632954B76
:10278000FDF730FD0546FDF7B7FD93494861086840
:1027900024E100002C00002028000020666C616706
:1027A000206973202564202C50574D206973202503
:1027B0006420485A2C537065656420697320256431
:1027C00020722F6D696E200D0A2000006A00002023
:1027D00060000020466C61672069732030000000B3
:1027E00050574D206973203130303020485A000056
:1027F000537065656420697320363020722F6E0037
:10280000466C6167206973203100000050574D20ED
:102810006973203230303020485A000053706565AB
:10282000642069732031323020722F6E0000000066
:10283000466C6167206973203200000050574D20BC
:102840006973203330303020485A0000537065657A
:10285000642069732031383020722F6E0000000030
:10286000466C6167206973203300000050574D208B
:102870006973203430303020485A00005370656549
:10288000642069732032343020722F6E0000000003
:10289000466C6167206973203400000050574D205A
:1028A0006973203530303020485A00005370656518
:1028B000642069732033303020722F6E00000000D6
:1028C000466C6167206973203500000050574D2029
:1028D0006973203630303020485A000053706565E7
:1028E000642069732033363020722F6E00000000A0
:1028F000466C6167206973203600000050574D20F8
:102900006973203730303020485A000053706565B5
:10291000642069732034323020722F6E0000000072
:10292000466C6167206973203700000050574D20C6
:102930006973203830303020485A00005370656584
:10294000642069732034383020722F6E000000003C
:10295000466C6167206973203800000050574D2095
:102960006973203930303020485A00005370656553
:10297000642069732035343020722F6E000000000F
:1029800053746F70706564200A000000466C6167C4
:10299000206973203900000053746F7070696E678E
:1029A0000000000053706565642069732030207258
:1029B0002F6E000044656661756C742053697475F0
:1029C0006174696F6E200D0A000000000004004071
:1029D0009400002066660A407C000020FDF779FC28
:1029E000044622460B461EA0FFF74CF822494868D1
:1029F000FDF76FFC044622460B4620A0FFF742F885
:102A00001D498868FDF765FC044622460B4621A057
:102A1000FFF738F81849C868FDF75BFC0446224602
:102A20000B4622A0FFF72EF813490869FDF751FC69
:102A3000044622460B4623A0FFF724F80E494869B6
:102A4000FDF747FC044622460B4624A0FFF71AF880
:102A500028A0FFF717F84FF47A70FEF735FD9CE4D5
:102A60000D0A204348302076616C7565203D202595
:102A7000662056200D0A00007C0000200D0A20432D
:102A800048312076616C7565203D202566205620F2
:102A90000D0A00000D0A204348322076616C7565EE
:102AA000203D2025662056200D0A00000D0A2043F7
:102AB00048332076616C7565203D202566205620C0
:102AC0000D0A00000D0A204348342076616C7565BC
:102AD000203D2025662056200D0A00000D0A2043C7
:102AE00048352076616C7565203D2025662056208E
:102AF0000D0A00000D0A0D0A000000001C2B000842
:102B00000000002060000000A41A00087C2B0008D0
:102B10006000002040040000B41A000800A24A042B
:102B2000000000000000000001020304060708097D
:102B30000000000001020304010203040607080963
:102B40000204060800000000000000000100000070
:102B50000000000000000000808182838485868759
:102B6000909192939495969788898A8B8C8D8E8F6D
:0C2B700098999A9B9C9D9E9F000000007D
:0400000508000131BD
:00000001FF
